{
  "contractName": "CrowdFunding",
  "abi": [
    {
      "inputs": [
        {
          "internalType": "string",
          "name": "_name",
          "type": "string"
        },
        {
          "internalType": "uint256",
          "name": "_targetAmount",
          "type": "uint256"
        },
        {
          "internalType": "uint256",
          "name": "_fundingDeadLine",
          "type": "uint256"
        },
        {
          "internalType": "address payable",
          "name": "_beneficiary",
          "type": "address"
        }
      ],
      "stateMutability": "nonpayable",
      "type": "constructor"
    },
    {
      "inputs": [
        {
          "internalType": "address",
          "name": "",
          "type": "address"
        }
      ],
      "name": "amounts",
      "outputs": [
        {
          "internalType": "uint256",
          "name": "",
          "type": "uint256"
        }
      ],
      "stateMutability": "view",
      "type": "function"
    },
    {
      "inputs": [],
      "name": "beneficiary",
      "outputs": [
        {
          "internalType": "address payable",
          "name": "",
          "type": "address"
        }
      ],
      "stateMutability": "view",
      "type": "function"
    },
    {
      "inputs": [],
      "name": "collected",
      "outputs": [
        {
          "internalType": "bool",
          "name": "",
          "type": "bool"
        }
      ],
      "stateMutability": "view",
      "type": "function"
    },
    {
      "inputs": [],
      "name": "fundingDeadLine",
      "outputs": [
        {
          "internalType": "uint256",
          "name": "",
          "type": "uint256"
        }
      ],
      "stateMutability": "view",
      "type": "function"
    },
    {
      "inputs": [],
      "name": "name",
      "outputs": [
        {
          "internalType": "string",
          "name": "",
          "type": "string"
        }
      ],
      "stateMutability": "view",
      "type": "function"
    },
    {
      "inputs": [],
      "name": "state",
      "outputs": [
        {
          "internalType": "enum CrowdFunding.State",
          "name": "",
          "type": "uint8"
        }
      ],
      "stateMutability": "view",
      "type": "function"
    },
    {
      "inputs": [],
      "name": "targetAmount",
      "outputs": [
        {
          "internalType": "uint256",
          "name": "",
          "type": "uint256"
        }
      ],
      "stateMutability": "view",
      "type": "function"
    },
    {
      "inputs": [],
      "name": "totalCollected",
      "outputs": [
        {
          "internalType": "uint256",
          "name": "",
          "type": "uint256"
        }
      ],
      "stateMutability": "view",
      "type": "function"
    },
    {
      "inputs": [],
      "name": "contribute",
      "outputs": [],
      "stateMutability": "payable",
      "type": "function"
    },
    {
      "inputs": [],
      "name": "finishCrowdFunding",
      "outputs": [],
      "stateMutability": "nonpayable",
      "type": "function"
    },
    {
      "inputs": [],
      "name": "collect",
      "outputs": [],
      "stateMutability": "nonpayable",
      "type": "function"
    },
    {
      "inputs": [],
      "name": "widthdraw",
      "outputs": [],
      "stateMutability": "nonpayable",
      "type": "function"
    }
  ],
  "bytecode": "0x60806040523480156200001157600080fd5b50604051620016483803806200164883398181016040528101906200003791906200034a565b83600090816200004891906200061c565b50670de0b6b3a7640000836200005f919062000732565b600181905550603c8262000074919062000732565b620000846200010f60201b60201c565b62000090919062000793565b60028190555080600360006101000a81548173ffffffffffffffffffffffffffffffffffffffff021916908373ffffffffffffffffffffffffffffffffffffffff1602179055506000600360146101000a81548160ff021916908360038111156200010057620000ff620007ce565b5b021790555050505050620007fd565b600042905090565b6000604051905090565b600080fd5b600080fd5b600080fd5b600080fd5b6000601f19601f8301169050919050565b7f4e487b7100000000000000000000000000000000000000000000000000000000600052604160045260246000fd5b620001808262000135565b810181811067ffffffffffffffff82111715620001a257620001a162000146565b5b80604052505050565b6000620001b762000117565b9050620001c5828262000175565b919050565b600067ffffffffffffffff821115620001e857620001e762000146565b5b620001f38262000135565b9050602081019050919050565b60005b838110156200022057808201518184015260208101905062000203565b60008484015250505050565b6000620002436200023d84620001ca565b620001ab565b90508281526020810184848401111562000262576200026162000130565b5b6200026f84828562000200565b509392505050565b600082601f8301126200028f576200028e6200012b565b5b8151620002a18482602086016200022c565b91505092915050565b6000819050919050565b620002bf81620002aa565b8114620002cb57600080fd5b50565b600081519050620002df81620002b4565b92915050565b600073ffffffffffffffffffffffffffffffffffffffff82169050919050565b60006200031282620002e5565b9050919050565b620003248162000305565b81146200033057600080fd5b50565b600081519050620003448162000319565b92915050565b6000806000806080858703121562000367576200036662000121565b5b600085015167ffffffffffffffff81111562000388576200038762000126565b5b620003968782880162000277565b9450506020620003a987828801620002ce565b9350506040620003bc87828801620002ce565b9250506060620003cf8782880162000333565b91505092959194509250565b600081519050919050565b7f4e487b7100000000000000000000000000000000000000000000000000000000600052602260045260246000fd5b600060028204905060018216806200042e57607f821691505b602082108103620004445762000443620003e6565b5b50919050565b60008190508160005260206000209050919050565b60006020601f8301049050919050565b600082821b905092915050565b600060088302620004ae7fffffffffffffffffffffffffffffffffffffffffffffffffffffffffffffffff826200046f565b620004ba86836200046f565b95508019841693508086168417925050509392505050565b6000819050919050565b6000620004fd620004f7620004f184620002aa565b620004d2565b620002aa565b9050919050565b6000819050919050565b6200051983620004dc565b62000531620005288262000504565b8484546200047c565b825550505050565b600090565b6200054862000539565b620005558184846200050e565b505050565b5b818110156200057d57620005716000826200053e565b6001810190506200055b565b5050565b601f821115620005cc5762000596816200044a565b620005a1846200045f565b81016020851015620005b1578190505b620005c9620005c0856200045f565b8301826200055a565b50505b505050565b600082821c905092915050565b6000620005f160001984600802620005d1565b1980831691505092915050565b60006200060c8383620005de565b9150826002028217905092915050565b6200062782620003db565b67ffffffffffffffff81111562000643576200064262000146565b5b6200064f825462000415565b6200065c82828562000581565b600060209050601f8311600181146200069457600084156200067f578287015190505b6200068b8582620005fe565b865550620006fb565b601f198416620006a4866200044a565b60005b82811015620006ce57848901518255600182019150602085019450602081019050620006a7565b86831015620006ee5784890151620006ea601f891682620005de565b8355505b6001600288020188555050505b505050505050565b7f4e487b7100000000000000000000000000000000000000000000000000000000600052601160045260246000fd5b60006200073f82620002aa565b91506200074c83620002aa565b9250817fffffffffffffffffffffffffffffffffffffffffffffffffffffffffffffffff048311821515161562000788576200078762000703565b5b828202905092915050565b6000620007a082620002aa565b9150620007ad83620002aa565b9250828201905080821115620007c857620007c762000703565b5b92915050565b7f4e487b7100000000000000000000000000000000000000000000000000000000600052602160045260246000fd5b610e3b806200080d6000396000f3fe6080604052600436106100a75760003560e01c806384bcefd41161006457806384bcefd414610198578063953b8fb8146101c3578063c19d93fb146101ee578063d7bb99ba14610219578063e29eb83614610223578063e52253811461024e576100a7565b806306fdde03146100ac578063083dca11146100d75780630eef346d146100ee57806338af3eed1461011957806352b50a2a1461014457806355a3b2c11461015b575b600080fd5b3480156100b857600080fd5b506100c1610265565b6040516100ce9190610a14565b60405180910390f35b3480156100e357600080fd5b506100ec6102f3565b005b3480156100fa57600080fd5b50610103610424565b6040516101109190610a4f565b60405180910390f35b34801561012557600080fd5b5061012e61042a565b60405161013b9190610aab565b60405180910390f35b34801561015057600080fd5b50610159610450565b005b34801561016757600080fd5b50610182600480360381019061017d9190610b09565b610676565b60405161018f9190610a4f565b60405180910390f35b3480156101a457600080fd5b506101ad61068e565b6040516101ba9190610b51565b60405180910390f35b3480156101cf57600080fd5b506101d86106a1565b6040516101e59190610a4f565b60405180910390f35b3480156101fa57600080fd5b506102036106a7565b6040516102109190610be3565b60405180910390f35b6102216106ba565b005b34801561022f57600080fd5b50610238610831565b6040516102459190610a4f565b60405180910390f35b34801561025a57600080fd5b50610263610837565b005b6000805461027290610c2d565b80601f016020809104026020016040519081016040528092919081815260200182805461029e90610c2d565b80156102eb5780601f106102c0576101008083540402835291602001916102eb565b820191906000526020600020905b8154815290600101906020018083116102ce57829003601f168201915b505050505081565b600080600381111561030857610307610b6c565b5b600360149054906101000a900460ff16600381111561032a57610329610b6c565b5b1461036a576040517f08c379a000000000000000000000000000000000000000000000000000000000815260040161036190610caa565b60405180910390fd5b610372610969565b6103b1576040517f08c379a00000000000000000000000000000000000000000000000000000000081526004016103a890610d16565b60405180910390fd5b600560009054906101000a900460ff16156103f5576002600360146101000a81548160ff021916908360038111156103ec576103eb610b6c565b5b02179055610420565b6001600360146101000a81548160ff0219169083600381111561041b5761041a610b6c565b5b021790555b5050565b60025481565b600360009054906101000a900473ffffffffffffffffffffffffffffffffffffffff1681565b600180600381111561046557610464610b6c565b5b600360149054906101000a900460ff16600381111561048757610486610b6c565b5b146104c7576040517f08c379a00000000000000000000000000000000000000000000000000000000081526004016104be90610caa565b60405180910390fd5b6000600460003373ffffffffffffffffffffffffffffffffffffffff1673ffffffffffffffffffffffffffffffffffffffff1681526020019081526020016000205411610549576040517f08c379a000000000000000000000000000000000000000000000000000000000815260040161054090610d82565b60405180910390fd5b6000600460003373ffffffffffffffffffffffffffffffffffffffff1673ffffffffffffffffffffffffffffffffffffffff1681526020019081526020016000205490506000600460003373ffffffffffffffffffffffffffffffffffffffff1673ffffffffffffffffffffffffffffffffffffffff16815260200190815260200160002081905550600360009054906101000a900473ffffffffffffffffffffffffffffffffffffffff1673ffffffffffffffffffffffffffffffffffffffff166108fc829081150290604051600060405180830381858888f193505050506106725780600460003373ffffffffffffffffffffffffffffffffffffffff1673ffffffffffffffffffffffffffffffffffffffff168152602001908152602001600020819055505b5050565b60046020528060005260406000206000915090505481565b600560009054906101000a900460ff1681565b60015481565b600360149054906101000a900460ff1681565b60008060038111156106cf576106ce610b6c565b5b600360149054906101000a900460ff1660038111156106f1576106f0610b6c565b5b14610731576040517f08c379a000000000000000000000000000000000000000000000000000000000815260040161072890610caa565b60405180910390fd5b610739610969565b610778576040517f08c379a000000000000000000000000000000000000000000000000000000000815260040161076f90610d16565b60405180910390fd5b34600460003373ffffffffffffffffffffffffffffffffffffffff1673ffffffffffffffffffffffffffffffffffffffff16815260200190815260200160002060008282546107c79190610dd1565b9250508190555034600660008282546107e09190610dd1565b925050819055506001546006541015610812576000600560006101000a81548160ff021916908315150217905561082d565b6001600560006101000a81548160ff02191690831515021790555b5050565b60065481565b600280600381111561084c5761084b610b6c565b5b600360149054906101000a900460ff16600381111561086e5761086d610b6c565b5b146108ae576040517f08c379a00000000000000000000000000000000000000000000000000000000081526004016108a590610caa565b60405180910390fd5b600360009054906101000a900473ffffffffffffffffffffffffffffffffffffffff1673ffffffffffffffffffffffffffffffffffffffff166108fc6006549081150290604051600060405180830381858888f193505050501561093b576001600360146101000a81548160ff0219169083600381111561093257610931610b6c565b5b02179055610965565b60038060146101000a81548160ff021916908360038111156109605761095f610b6c565b5b021790555b5050565b600060025461097661097c565b10905090565b600042905090565b600081519050919050565b600082825260208201905092915050565b60005b838110156109be5780820151818401526020810190506109a3565b60008484015250505050565b6000601f19601f8301169050919050565b60006109e682610984565b6109f0818561098f565b9350610a008185602086016109a0565b610a09816109ca565b840191505092915050565b60006020820190508181036000830152610a2e81846109db565b905092915050565b6000819050919050565b610a4981610a36565b82525050565b6000602082019050610a646000830184610a40565b92915050565b600073ffffffffffffffffffffffffffffffffffffffff82169050919050565b6000610a9582610a6a565b9050919050565b610aa581610a8a565b82525050565b6000602082019050610ac06000830184610a9c565b92915050565b600080fd5b6000610ad682610a6a565b9050919050565b610ae681610acb565b8114610af157600080fd5b50565b600081359050610b0381610add565b92915050565b600060208284031215610b1f57610b1e610ac6565b5b6000610b2d84828501610af4565b91505092915050565b60008115159050919050565b610b4b81610b36565b82525050565b6000602082019050610b666000830184610b42565b92915050565b7f4e487b7100000000000000000000000000000000000000000000000000000000600052602160045260246000fd5b60048110610bac57610bab610b6c565b5b50565b6000819050610bbd82610b9b565b919050565b6000610bcd82610baf565b9050919050565b610bdd81610bc2565b82525050565b6000602082019050610bf86000830184610bd4565b92915050565b7f4e487b7100000000000000000000000000000000000000000000000000000000600052602260045260246000fd5b60006002820490506001821680610c4557607f821691505b602082108103610c5857610c57610bfe565b5b50919050565b7f496e76616c696420737461746500000000000000000000000000000000000000600082015250565b6000610c94600d8361098f565b9150610c9f82610c5e565b602082019050919050565b60006020820190508181036000830152610cc381610c87565b9050919050565b7f43616d706169676e206973206e6f742061637469766500000000000000000000600082015250565b6000610d0060168361098f565b9150610d0b82610cca565b602082019050919050565b60006020820190508181036000830152610d2f81610cf3565b9050919050565b7f4e6f206d6f6e657920746f207769746864726177000000000000000000000000600082015250565b6000610d6c60148361098f565b9150610d7782610d36565b602082019050919050565b60006020820190508181036000830152610d9b81610d5f565b9050919050565b7f4e487b7100000000000000000000000000000000000000000000000000000000600052601160045260246000fd5b6000610ddc82610a36565b9150610de783610a36565b9250828201905080821115610dff57610dfe610da2565b5b9291505056fea2646970667358221220a153594c29da889cad5109d71cf017346ed9a704ec9d489d7d0e3e2b8f6ef61e64736f6c63430008100033",
  "immutableReferences": {},
  "source": "pragma solidity >=0.4.22 <0.9.0;\r\n\r\ncontract CrowdFunding{\r\n    enum State {\r\n        ON_GOING,\r\n        FAILED,\r\n        SUCCEEDED,\r\n        PAID_OUT\r\n    }\r\n    string public name;\r\n    uint public targetAmount;\r\n    uint public fundingDeadLine;\r\n    address payable public beneficiary;\r\n\r\n    State public state;\r\n\r\n    //how much each address has contributed\r\n    mapping (address => uint) public amounts;\r\n    bool public collected;\r\n    uint public totalCollected;\r\n\r\n    modifier inState(State expectedState) {\r\n        require(state == expectedState, \"Invalid state\");\r\n        //execute the body of the method\r\n        _;\r\n    }\r\n\r\n    /*\r\n    * @name the name of the campaign\r\n    * @targetAmount the target amount of the campaign\r\n    * @fundingDeadLine the deadline of the campaign\r\n    * @beneficiary the address of the beneficiary\r\n    * @state the state of the contract\r\n    */\r\n    constructor(string memory _name, uint _targetAmount, uint _fundingDeadLine, address payable _beneficiary){\r\n        name = _name;\r\n        targetAmount = _targetAmount * 1 ether; // convert to weis\r\n        fundingDeadLine = currentTime() + _fundingDeadLine * 1 minutes;\r\n        beneficiary = _beneficiary;\r\n        state = State.ON_GOING; \r\n    }\r\n\r\n    function currentTime() internal view returns (uint){\r\n        return block.timestamp;\r\n    }\r\n\r\n\r\n    function contribute() public payable inState(State.ON_GOING){\r\n        require(beforeDeadline(), \"Campaign is not active\");\r\n\r\n        amounts[msg.sender] += msg.value;\r\n        totalCollected += msg.value;\r\n\r\n        totalCollected >= targetAmount ? collected = true : collected = false;\r\n    }\r\n\r\n    function beforeDeadline() internal view returns (bool){\r\n        return currentTime() < fundingDeadLine;\r\n    }\r\n\r\n    function finishCrowdFunding() public inState(State.ON_GOING){\r\n        require(beforeDeadline(), \"Campaign is not active\");\r\n\r\n        !collected ? state = State.FAILED : state = State.SUCCEEDED;\r\n    }\r\n\r\n    function collect() public inState(State.SUCCEEDED){\r\n        !beneficiary.send(totalCollected) ? state = State.PAID_OUT : state = State.FAILED;\r\n    }\r\n\r\n    function widthdraw() public inState(State.FAILED){\r\n        require(amounts[msg.sender] > 0, \"No money to withdraw\");\r\n        \r\n        uint contributed = amounts[msg.sender];\r\n        amounts[msg.sender] = 0;\r\n\r\n        if(!beneficiary.send(contributed)){\r\n            amounts[msg.sender] = contributed;\r\n    }\r\n    }\r\n\r\n}\r\n\r\n",
  "sourcePath": "E:\\repos\\blockchain\\contracts\\CrowdFunding.sol",
  "compiler": {
    "name": "solc",
    "version": "0.8.16+commit.07a7930e.Emscripten.clang"
  },
  "schemaVersion": "3.4.9",
  "updatedAt": "2022-08-17T13:11:22.738Z",
  "devdoc": {
    "kind": "dev",
    "methods": {},
    "version": 1
  },
  "userdoc": {
    "kind": "user",
    "methods": {},
    "version": 1
  }
}