{
  "contractName": "CrowdFunding",
  "abi": [
    {
      "inputs": [
        {
          "internalType": "string",
          "name": "_name",
          "type": "string"
        },
        {
          "internalType": "uint256",
          "name": "_targetAmount",
          "type": "uint256"
        },
        {
          "internalType": "uint256",
          "name": "_fundingDeadLine",
          "type": "uint256"
        },
        {
          "internalType": "address payable",
          "name": "_beneficiary",
          "type": "address"
        }
      ],
      "stateMutability": "nonpayable",
      "type": "constructor"
    },
    {
      "anonymous": false,
      "inputs": [
        {
          "indexed": false,
          "internalType": "address",
          "name": "addr",
          "type": "address"
        },
        {
          "indexed": false,
          "internalType": "uint256",
          "name": "totalCollected",
          "type": "uint256"
        },
        {
          "indexed": false,
          "internalType": "bool",
          "name": "succeeded",
          "type": "bool"
        }
      ],
      "name": "CampaignFinished",
      "type": "event"
    },
    {
      "inputs": [
        {
          "internalType": "address",
          "name": "",
          "type": "address"
        }
      ],
      "name": "amounts",
      "outputs": [
        {
          "internalType": "uint256",
          "name": "",
          "type": "uint256"
        }
      ],
      "stateMutability": "view",
      "type": "function",
      "constant": true
    },
    {
      "inputs": [],
      "name": "beneficiary",
      "outputs": [
        {
          "internalType": "address payable",
          "name": "",
          "type": "address"
        }
      ],
      "stateMutability": "view",
      "type": "function",
      "constant": true
    },
    {
      "inputs": [],
      "name": "collected",
      "outputs": [
        {
          "internalType": "bool",
          "name": "",
          "type": "bool"
        }
      ],
      "stateMutability": "view",
      "type": "function",
      "constant": true
    },
    {
      "inputs": [],
      "name": "fundingDeadLine",
      "outputs": [
        {
          "internalType": "uint256",
          "name": "",
          "type": "uint256"
        }
      ],
      "stateMutability": "view",
      "type": "function",
      "constant": true
    },
    {
      "inputs": [],
      "name": "name",
      "outputs": [
        {
          "internalType": "string",
          "name": "",
          "type": "string"
        }
      ],
      "stateMutability": "view",
      "type": "function",
      "constant": true
    },
    {
      "inputs": [],
      "name": "state",
      "outputs": [
        {
          "internalType": "enum CrowdFunding.State",
          "name": "",
          "type": "uint8"
        }
      ],
      "stateMutability": "view",
      "type": "function",
      "constant": true
    },
    {
      "inputs": [],
      "name": "targetAmount",
      "outputs": [
        {
          "internalType": "uint256",
          "name": "",
          "type": "uint256"
        }
      ],
      "stateMutability": "view",
      "type": "function",
      "constant": true
    },
    {
      "inputs": [],
      "name": "totalCollected",
      "outputs": [
        {
          "internalType": "uint256",
          "name": "",
          "type": "uint256"
        }
      ],
      "stateMutability": "view",
      "type": "function",
      "constant": true
    },
    {
      "inputs": [],
      "name": "contribute",
      "outputs": [],
      "stateMutability": "payable",
      "type": "function",
      "payable": true
    },
    {
      "inputs": [],
      "name": "finishCrowdFunding",
      "outputs": [],
      "stateMutability": "nonpayable",
      "type": "function"
    },
    {
      "inputs": [],
      "name": "collect",
      "outputs": [],
      "stateMutability": "nonpayable",
      "type": "function"
    },
    {
      "inputs": [],
      "name": "widthdraw",
      "outputs": [],
      "stateMutability": "nonpayable",
      "type": "function"
    }
  ],
  "bytecode": "0x60806040523480156200001157600080fd5b50604051620016b8380380620016b883398181016040528101906200003791906200034a565b83600090816200004891906200061c565b50670de0b6b3a7640000836200005f919062000732565b600181905550603c8262000074919062000732565b620000846200010f60201b60201c565b62000090919062000793565b60028190555080600360006101000a81548173ffffffffffffffffffffffffffffffffffffffff021916908373ffffffffffffffffffffffffffffffffffffffff1602179055506000600360146101000a81548160ff021916908360038111156200010057620000ff620007ce565b5b021790555050505050620007fd565b600042905090565b6000604051905090565b600080fd5b600080fd5b600080fd5b600080fd5b6000601f19601f8301169050919050565b7f4e487b7100000000000000000000000000000000000000000000000000000000600052604160045260246000fd5b620001808262000135565b810181811067ffffffffffffffff82111715620001a257620001a162000146565b5b80604052505050565b6000620001b762000117565b9050620001c5828262000175565b919050565b600067ffffffffffffffff821115620001e857620001e762000146565b5b620001f38262000135565b9050602081019050919050565b60005b838110156200022057808201518184015260208101905062000203565b60008484015250505050565b6000620002436200023d84620001ca565b620001ab565b90508281526020810184848401111562000262576200026162000130565b5b6200026f84828562000200565b509392505050565b600082601f8301126200028f576200028e6200012b565b5b8151620002a18482602086016200022c565b91505092915050565b6000819050919050565b620002bf81620002aa565b8114620002cb57600080fd5b50565b600081519050620002df81620002b4565b92915050565b600073ffffffffffffffffffffffffffffffffffffffff82169050919050565b60006200031282620002e5565b9050919050565b620003248162000305565b81146200033057600080fd5b50565b600081519050620003448162000319565b92915050565b6000806000806080858703121562000367576200036662000121565b5b600085015167ffffffffffffffff81111562000388576200038762000126565b5b620003968782880162000277565b9450506020620003a987828801620002ce565b9350506040620003bc87828801620002ce565b9250506060620003cf8782880162000333565b91505092959194509250565b600081519050919050565b7f4e487b7100000000000000000000000000000000000000000000000000000000600052602260045260246000fd5b600060028204905060018216806200042e57607f821691505b602082108103620004445762000443620003e6565b5b50919050565b60008190508160005260206000209050919050565b60006020601f8301049050919050565b600082821b905092915050565b600060088302620004ae7fffffffffffffffffffffffffffffffffffffffffffffffffffffffffffffffff826200046f565b620004ba86836200046f565b95508019841693508086168417925050509392505050565b6000819050919050565b6000620004fd620004f7620004f184620002aa565b620004d2565b620002aa565b9050919050565b6000819050919050565b6200051983620004dc565b62000531620005288262000504565b8484546200047c565b825550505050565b600090565b6200054862000539565b620005558184846200050e565b505050565b5b818110156200057d57620005716000826200053e565b6001810190506200055b565b5050565b601f821115620005cc5762000596816200044a565b620005a1846200045f565b81016020851015620005b1578190505b620005c9620005c0856200045f565b8301826200055a565b50505b505050565b600082821c905092915050565b6000620005f160001984600802620005d1565b1980831691505092915050565b60006200060c8383620005de565b9150826002028217905092915050565b6200062782620003db565b67ffffffffffffffff81111562000643576200064262000146565b5b6200064f825462000415565b6200065c82828562000581565b600060209050601f8311600181146200069457600084156200067f578287015190505b6200068b8582620005fe565b865550620006fb565b601f198416620006a4866200044a565b60005b82811015620006ce57848901518255600182019150602085019450602081019050620006a7565b86831015620006ee5784890151620006ea601f891682620005de565b8355505b6001600288020188555050505b505050505050565b7f4e487b7100000000000000000000000000000000000000000000000000000000600052601160045260246000fd5b60006200073f82620002aa565b91506200074c83620002aa565b9250817fffffffffffffffffffffffffffffffffffffffffffffffffffffffffffffffff048311821515161562000788576200078762000703565b5b828202905092915050565b6000620007a082620002aa565b9150620007ad83620002aa565b9250828201905080821115620007c857620007c762000703565b5b92915050565b7f4e487b7100000000000000000000000000000000000000000000000000000000600052602160045260246000fd5b610eab806200080d6000396000f3fe6080604052600436106100a75760003560e01c806384bcefd41161006457806384bcefd414610198578063953b8fb8146101c3578063c19d93fb146101ee578063d7bb99ba14610219578063e29eb83614610223578063e52253811461024e576100a7565b806306fdde03146100ac578063083dca11146100d75780630eef346d146100ee57806338af3eed1461011957806352b50a2a1461014457806355a3b2c11461015b575b600080fd5b3480156100b857600080fd5b506100c1610265565b6040516100ce9190610a3e565b60405180910390f35b3480156100e357600080fd5b506100ec6102f3565b005b3480156100fa57600080fd5b50610103610470565b6040516101109190610a79565b60405180910390f35b34801561012557600080fd5b5061012e610476565b60405161013b9190610ad5565b60405180910390f35b34801561015057600080fd5b5061015961049c565b005b34801561016757600080fd5b50610182600480360381019061017d9190610b33565b6106a0565b60405161018f9190610a79565b60405180910390f35b3480156101a457600080fd5b506101ad6106b8565b6040516101ba9190610b7b565b60405180910390f35b3480156101cf57600080fd5b506101d86106cb565b6040516101e59190610a79565b60405180910390f35b3480156101fa57600080fd5b506102036106d1565b6040516102109190610c0d565b60405180910390f35b6102216106e4565b005b34801561022f57600080fd5b5061023861085b565b6040516102459190610a79565b60405180910390f35b34801561025a57600080fd5b50610263610861565b005b6000805461027290610c57565b80601f016020809104026020016040519081016040528092919081815260200182805461029e90610c57565b80156102eb5780601f106102c0576101008083540402835291602001916102eb565b820191906000526020600020905b8154815290600101906020018083116102ce57829003601f168201915b505050505081565b600080600381111561030857610307610b96565b5b600360149054906101000a900460ff16600381111561032a57610329610b96565b5b1461036a576040517f08c379a000000000000000000000000000000000000000000000000000000000815260040161036190610cd4565b60405180910390fd5b610372610993565b6103b1576040517f08c379a00000000000000000000000000000000000000000000000000000000081526004016103a890610d40565b60405180910390fd5b600560009054906101000a900460ff16156103f5576002600360146101000a81548160ff021916908360038111156103ec576103eb610b96565b5b02179055610420565b6001600360146101000a81548160ff0219169083600381111561041b5761041a610b96565b5b021790555b507f6fa7e87ebbd87ed4f1c40bba63144f68fd2bb022fb748ab3b61b5411c39bd47433600654600560009054906101000a900460ff1660405161046593929190610d6f565b60405180910390a150565b60025481565b600360009054906101000a900473ffffffffffffffffffffffffffffffffffffffff1681565b60018060038111156104b1576104b0610b96565b5b600360149054906101000a900460ff1660038111156104d3576104d2610b96565b5b14610513576040517f08c379a000000000000000000000000000000000000000000000000000000000815260040161050a90610cd4565b60405180910390fd5b6000600460003373ffffffffffffffffffffffffffffffffffffffff1673ffffffffffffffffffffffffffffffffffffffff1681526020019081526020016000205411610595576040517f08c379a000000000000000000000000000000000000000000000000000000000815260040161058c90610df2565b60405180910390fd5b6000600460003373ffffffffffffffffffffffffffffffffffffffff1673ffffffffffffffffffffffffffffffffffffffff1681526020019081526020016000205490506000600460003373ffffffffffffffffffffffffffffffffffffffff1673ffffffffffffffffffffffffffffffffffffffff168152602001908152602001600020819055503373ffffffffffffffffffffffffffffffffffffffff166108fc829081150290604051600060405180830381858888f1935050505061069c5780600460003373ffffffffffffffffffffffffffffffffffffffff1673ffffffffffffffffffffffffffffffffffffffff168152602001908152602001600020819055505b5050565b60046020528060005260406000206000915090505481565b600560009054906101000a900460ff1681565b60015481565b600360149054906101000a900460ff1681565b60008060038111156106f9576106f8610b96565b5b600360149054906101000a900460ff16600381111561071b5761071a610b96565b5b1461075b576040517f08c379a000000000000000000000000000000000000000000000000000000000815260040161075290610cd4565b60405180910390fd5b610763610993565b6107a2576040517f08c379a000000000000000000000000000000000000000000000000000000000815260040161079990610d40565b60405180910390fd5b34600460003373ffffffffffffffffffffffffffffffffffffffff1673ffffffffffffffffffffffffffffffffffffffff16815260200190815260200160002060008282546107f19190610e41565b92505081905550346006600082825461080a9190610e41565b92505081905550600154600654101561083c576000600560006101000a81548160ff0219169083151502179055610857565b6001600560006101000a81548160ff02191690831515021790555b5050565b60065481565b600280600381111561087657610875610b96565b5b600360149054906101000a900460ff16600381111561089857610897610b96565b5b146108d8576040517f08c379a00000000000000000000000000000000000000000000000000000000081526004016108cf90610cd4565b60405180910390fd5b600360009054906101000a900473ffffffffffffffffffffffffffffffffffffffff1673ffffffffffffffffffffffffffffffffffffffff166108fc6006549081150290604051600060405180830381858888f1935050505015610965576001600360146101000a81548160ff0219169083600381111561095c5761095b610b96565b5b0217905561098f565b60038060146101000a81548160ff0219169083600381111561098a57610989610b96565b5b021790555b5050565b60006002546109a06109a6565b10905090565b600042905090565b600081519050919050565b600082825260208201905092915050565b60005b838110156109e85780820151818401526020810190506109cd565b60008484015250505050565b6000601f19601f8301169050919050565b6000610a10826109ae565b610a1a81856109b9565b9350610a2a8185602086016109ca565b610a33816109f4565b840191505092915050565b60006020820190508181036000830152610a588184610a05565b905092915050565b6000819050919050565b610a7381610a60565b82525050565b6000602082019050610a8e6000830184610a6a565b92915050565b600073ffffffffffffffffffffffffffffffffffffffff82169050919050565b6000610abf82610a94565b9050919050565b610acf81610ab4565b82525050565b6000602082019050610aea6000830184610ac6565b92915050565b600080fd5b6000610b0082610a94565b9050919050565b610b1081610af5565b8114610b1b57600080fd5b50565b600081359050610b2d81610b07565b92915050565b600060208284031215610b4957610b48610af0565b5b6000610b5784828501610b1e565b91505092915050565b60008115159050919050565b610b7581610b60565b82525050565b6000602082019050610b906000830184610b6c565b92915050565b7f4e487b7100000000000000000000000000000000000000000000000000000000600052602160045260246000fd5b60048110610bd657610bd5610b96565b5b50565b6000819050610be782610bc5565b919050565b6000610bf782610bd9565b9050919050565b610c0781610bec565b82525050565b6000602082019050610c226000830184610bfe565b92915050565b7f4e487b7100000000000000000000000000000000000000000000000000000000600052602260045260246000fd5b60006002820490506001821680610c6f57607f821691505b602082108103610c8257610c81610c28565b5b50919050565b7f496e76616c696420737461746500000000000000000000000000000000000000600082015250565b6000610cbe600d836109b9565b9150610cc982610c88565b602082019050919050565b60006020820190508181036000830152610ced81610cb1565b9050919050565b7f43616d706169676e206973206e6f742061637469766500000000000000000000600082015250565b6000610d2a6016836109b9565b9150610d3582610cf4565b602082019050919050565b60006020820190508181036000830152610d5981610d1d565b9050919050565b610d6981610af5565b82525050565b6000606082019050610d846000830186610d60565b610d916020830185610a6a565b610d9e6040830184610b6c565b949350505050565b7f4e6f206d6f6e657920746f207769746864726177000000000000000000000000600082015250565b6000610ddc6014836109b9565b9150610de782610da6565b602082019050919050565b60006020820190508181036000830152610e0b81610dcf565b9050919050565b7f4e487b7100000000000000000000000000000000000000000000000000000000600052601160045260246000fd5b6000610e4c82610a60565b9150610e5783610a60565b9250828201905080821115610e6f57610e6e610e12565b5b9291505056fea264697066735822122065e189e1f63484abf0addfed189926c47184c38af4d862dc8c7a6c4670cd76bc64736f6c63430008100033",
  "immutableReferences": {},
  "source": "pragma solidity >=0.4.22 <0.9.0;\r\n\r\ncontract CrowdFunding{\r\n    enum State {\r\n        ON_GOING,\r\n        FAILED,\r\n        SUCCEEDED,\r\n        PAID_OUT\r\n    }\r\n    event CampaignFinished(\r\n        address addr,\r\n        uint totalCollected,\r\n        bool succeeded\r\n    );\r\n\r\n    string public name;\r\n    uint public targetAmount;\r\n    uint public fundingDeadLine;\r\n    address payable public beneficiary;\r\n\r\n    State public state;\r\n\r\n    //how much each address has contributed\r\n    mapping (address => uint) public amounts;\r\n    bool public collected;\r\n    uint public totalCollected;\r\n\r\n    modifier inState(State expectedState) {\r\n        require(state == expectedState, \"Invalid state\");\r\n        //execute the body of the method\r\n        _;\r\n    }\r\n\r\n    /*\r\n    * @name the name of the campaign\r\n    * @targetAmount the target amount of the campaign\r\n    * @fundingDeadLine the deadline of the campaign\r\n    * @beneficiary the address of the beneficiary\r\n    * @state the state of the contract\r\n    */\r\n    constructor(string memory _name, uint _targetAmount, uint _fundingDeadLine, address payable _beneficiary){\r\n        name = _name;\r\n        targetAmount = _targetAmount * 1 ether; // convert to weis\r\n        fundingDeadLine = currentTime() + _fundingDeadLine * 1 minutes;\r\n        beneficiary = _beneficiary;\r\n        state = State.ON_GOING; \r\n    }\r\n\r\n    function currentTime() internal view returns (uint){\r\n        return block.timestamp;\r\n    }\r\n\r\n\r\n    function contribute() public payable inState(State.ON_GOING){\r\n        require(beforeDeadline(), \"Campaign is not active\");\r\n\r\n        amounts[msg.sender] += msg.value;\r\n        totalCollected += msg.value;\r\n\r\n        totalCollected >= targetAmount ? collected = true : collected = false;\r\n    }\r\n\r\n    function beforeDeadline() internal view returns (bool){\r\n        return currentTime() < fundingDeadLine;\r\n    }\r\n\r\n    function finishCrowdFunding() public inState(State.ON_GOING){\r\n        require(beforeDeadline(), \"Campaign is not active\");\r\n\r\n        !collected ? state = State.FAILED : state = State.SUCCEEDED;\r\n\r\n        emit CampaignFinished(msg.sender, totalCollected, collected);\r\n    }\r\n\r\n    function collect() public inState(State.SUCCEEDED){\r\n        !beneficiary.send(totalCollected) ? state = State.PAID_OUT : state = State.FAILED;\r\n    }\r\n\r\n    function widthdraw() public inState(State.FAILED){\r\n        require(amounts[msg.sender] > 0, \"No money to withdraw\");\r\n        \r\n        uint contributed = amounts[msg.sender];\r\n        amounts[msg.sender] = 0;\r\n\r\n        if(!payable(msg.sender).send(contributed)){\r\n            amounts[msg.sender] = contributed;\r\n    }\r\n}\r\n\r\n}\r\n\r\n",
  "sourcePath": "E:\\repos\\blockchain\\contracts\\CrowdFunding.sol",
  "compiler": {
    "name": "solc",
    "version": "0.8.16+commit.07a7930e.Emscripten.clang"
  },
  "schemaVersion": "3.4.9",
  "updatedAt": "2022-08-18T13:49:07.909Z",
  "networkType": "ethereum",
  "devdoc": {
    "kind": "dev",
    "methods": {},
    "version": 1
  },
  "userdoc": {
    "kind": "user",
    "methods": {},
    "version": 1
  }
}